FFI03636018East Kensington Elementary              20200930
SRM0000000000011234567890Nader                    Nickolas                                          Ryan                     Jacques                                           19720820F      N943   000020000000000000000  0800    V8N0B6
SRM0000000000021234567890Stamm                    Richmond                                          Kuhlman                  Gregory                                           19860428M      N943   000070000000000000000  0800    V8N1E3
SRM0000000000031234567890Fritsch                  Yvonne                                            White                    Jules                                             19871209F      N943   000110000000000000000  0800    V8N0B5
SRM0000000000041234567890Hickle                   Arnold                                            Huels                    Junius                                            19930411F      N943   000100000000000000000  0800    V8N1A5
SRM0000000000051234567890Bartell                  Dedrick                                           O'Hara                   Xavier                                            19711011F      N943   000100000000000000000  0800    V8N0B1
SRM0000000000061234567890Vandervort               Eunice                                            Walker                   Florencio                                         19690809F      N943   000GA0000000000000000  0800    V8N0A1
SRM0000000000071234567890Graham                   Piper                                             Klein                    Bernie                                            19960828F      N943   000010000000000000000  0800    V8N1C1
SRM0000000000081234567890Russel                   Mathilde                                          Mitchell                 Garry                                             19701205M      N943   000110000000000000000  0800    V8N1A9
SRM0000000000091234567890Hettinger                Watson                                            Volkman                  Chelsie                                           19610707M      N943   000110000000000000000  0800    V8N1C6
SRM0000000000101234567890Satterfield              Kyla                                              Williamson               Justen                                            19650327F      N943   000090000000000000000  0800    V8N1A4
SRM0000000000111234567890Beatty                   Melvin                                            Lockman                  Jeramy                                            19690330M      N943   000040000000000000000  0800    V8N1B4
SRM0000000000121234567890Bauch                    Percival                                          Klein                    Laurianne                                         19780501F      N943   000060000000000000000  0800    V8N1E8
SRM0000000000131234567890Cassin                   Joesph                                            Hyatt                    Jaycee                                            19740930F      N943   000030000000000000000  0800    V8N0B1
SRM0000000000141234567890Crist                    Alexie                                            Flatley                  Eladio                                            19780308M      N943   000080000000000000000  0800    V8N0B5
SRM0000000000151234567890Collier                  Reece                                             Cummings                 Lesley                                            19910313F      N943   000GA0000000000000000  0800    V8N1A4
SRM0000000000161234567890Cronin                   Christop                                          Gutmann                  Clarabelle                                        19550901F      N943   000010000000000000000  0800    V8N1E8
SRM0000000000171234567890Prosacco                 Theodore                                          Krajcik                  Velda                                             19861025F      N943   000090000000000000000  0800    V8N1E1
SRM0000000000181234567890Luettgen                 Ressie                                            Hintz                    Samara                                            19830520F      N943   000020000000000000000  0800    V8N0B4
SRM0000000000191234567890Hilll                    Cleta                                             Brown                    Gregorio                                          20001231F      N943   000060000000000000000  0800    V8N1E6
SRM0000000000201234567890McDermott                Marjolaine                                        Dicki                    Emmanuelle                                        19880411F      N943   000050000000000000000  0800    V8N1H6
SRM0000000000211234567890Hand                     Uriel                                             Hegmann                  Lurline                                           20010219F      N943   000SU0000000000000000  0800    V8N1H3
SRM0000000000221234567890Morissette               Lavonne                                           Sporer                   Rubye                                             19961020F      N943   000050000000000000000  0800    V8N1C6
SRM0000000000231234567890Schneider                Jamar                                             Armstrong                Maddison                                          19681117F      N943   000090000000000000000  0800    V8N0A2
SRM0000000000241234567890Sporer                   Gertrude                                          Volkman                  Kaitlyn                                           19840131M      N943   000120000000000000000  0800    V8N1K8
SRM0000000000251234567890Towne                    Elenor                                            Fisher                   Danyka                                            19991016F      N943   000060000000000000000  0800    V8N1L2
SRM0000000000261234567890O'Keefe                  Jazmin                                            Swaniawski               Nico                                              19920110M      N943   000010000000000000000  0800    V8N1C1
SRM0000000000271234567890Tremblay                 Amaya                                             Schultz                  Jayce                                             19830908F      N943   000030000000000000000  0800    V8N1C4
SRM0000000000281234567890Lakin                    Madisen                                           Wiza                     Levi                                              19740523M      N943   000120000000000000000  0800    V8N1H2
SRM0000000000291234567890Reichel                  Shanon                                            Osinski                  Dallas                                            19900616M      N943   000SU0000000000000000  0800    V8N1L2
SRM0000000000301234567890Hills                    Libby                                             Gulgowski                Tomas                                             19920825F      N943   000110000000000000000  0800    V8N1E8
SRM0000000000311234567890Jacobson                 Wilfredo                                          Mann                     Clement                                           19951005F      N943   000020000000000000000  0800    V8N1A8
SRM0000000000321234567890Lang                     Deron                                             Bednar                   Corine                                            19941003M      N943   000110000000000000000  0800    V8N1K9
SRM0000000000331234567890Armstrong                Luz                                               Hills                    Sofia                                             19711209F      N943   000030000000000000000  0800    V8N1E2
SRM0000000000341234567890Yundt                    Josefa                                            Wintheiser               Lila                                              19890918F      N943   000070000000000000000  0800    V8N1E2
SRM0000000000351234567890Heaney                   Edwardo                                           Nienow                   Ariel                                             19660306M      N943   000070000000000000000  0800    V8N1A4
SRM0000000000361234567890Halvorson                Aida                                              Abbott                   Jonathan                                          19780529F      N943   000050000000000000000  0800    V8N1C4
SRM0000000000371234567890Wisozk                   Talia                                             Armstrong                Columbus                                          19900404F      N943   000010000000000000000  0800    V8N1J3
SRM0000000000381234567890O'Connell                Serena                                            King                     Sadye                                             19871207M      N943   000060000000000000000  0800    V8N1K7
SRM0000000000391234567890Jerde                    Brandy                                            Schamberger              Gaetano                                           19650106F      N943   000GA0000000000000000  0800    V8N1C1
SRM0000000000401234567890Hessel                   Samanta                                           Aufderhar                Deanna                                            19670607M      N943   000090000000000000000  0800    V8N1H4
SRM0000000000411234567890Witting                  Oran                                              O'Kon                    Letitia                                           19591230M      N943   000070000000000000000  0800    V8N1E1
SRM0000000000421234567890Hirthe                   Favian                                            Kerluke                  Angelica                                          19730714M      N943   000100000000000000000  0800    V8N1H1
SRM0000000000431234567890O'Conner                 Rachael                                           Walker                   Chad                                              19591117F      N943   000120000000000000000  0800    V8N1L3
SRM0000000000441234567890Waelchi                  Khalil                                            McKenzie                 Edwina                                            19580204F      N943   000SU0000000000000000  0800    V8N1A8
SRM0000000000451234567890Robel                    Jarrell                                           Hamill                   Shana                                             19810417M      N943   000010000000000000000  0800    V8N1K9
SRM0000000000461234567890Koch                     Rhiannon                                          Hansen                   Taurean                                           19710103F      N943   000SU0000000000000000  0800    V8N0B5
SRM0000000000471234567890Casper                   Gerry                                             Welch                    Lucas                                             19790330F      N943   000120000000000000000  0800    V8N0A9
SRM0000000000481234567890Sauer                    Evelyn                                            Bernier                  Mckayla                                           19770115M      N943   000110000000000000000  0800    V8N1C3
SRM0000000000491234567890Von                      Rico                                              Nikolaus                 Franz                                             19930914F      N943   000030000000000000000  0800    V8N1E1
SRM0000000000501234567890Bosco                    Toby                                              Cronin                   Pinkie                                            19920215F      N943   000050000000000000000  0800    V8N1A2
SRM0000000000511234567890Christiansen             Ashleigh                                          Bartell                  Nellie                                            19760506F      N943   000110000000000000000  0800    V8N1E4
SRM0000000000521234567890Yundt                    Franz                                             Murazik                  Samantha                                          20020225M      N943   000080000000000000000  0800    V8N1G8
SRM0000000000531234567890Corwin                   Bette                                             Quigley                  Barrett                                           19781124F      N943   000110000000000000000  0800    V8N0B2
SRM0000000000541234567890Predovic                 Willard                                           Kemmer                   Abigayle                                          19860208F      N943   000SU0000000000000000  0800    V8N1G7
SRM0000000000551234567890Weissnat                 Maryjane                                          Hand                     Linnie                                            19950603F      N943   000040000000000000000  0800    V8N1A6
SRM0000000000561234567890Bogan                    Otto                                              Boehm                    Amparo                                            19570428F      N943   000060000000000000000  0800    V8N1E1
SRM0000000000571234567890Murazik                  Khalil                                            Schmeler                 Rosetta                                           19550921F      N943   000010000000000000000  0800    V8N1B4
SRM0000000000581234567890Becker                   Raul                                              Anderson                 Edward                                            19620323F      N943   000070000000000000000  0800    V8N1K3
SRM0000000000591234567890Stanton                  Antonetta                                         Nienow                   Joe                                               19590520M      N943   000020000000000000000  0800    V8N1J2
SRM0000000000601234567890Denesik                  Alessandro                                        Zboncak                  Linnea                                            19730519M      N943   000060000000000000000  0800    V8N1E8
SRM0000000000611234567890Wisozk                   Reymundo                                          Casper                   Clotilde                                          19961214M      N943   000040000000000000000  0800    V8N1H2
SRM0000000000621234567890Huel                     Elinore                                           Roberts                  Baylee                                            19850421M      N943   000040000000000000000  0800    V8N1G7
SRM0000000000631234567890Bergnaum                 Audreanne                                         Jacobs                   Hyman                                             19960612F      N943   000SU0000000000000000  0800    V8N0A2
SRM0000000000641234567890Schultz                  Angelina                                          Reichert                 Emmett                                            19900117F      N943   000SU0000000000000000  0800    V8N1J7
SRM0000000000651234567890Krajcik                  Rosella                                           VonRueden                Kattie                                            19791031M      N943   000120000000000000000  0800    V8N0B5
SRM0000000000661234567890Goldner                  Maribel                                           Hermann                  Dock                                              19751126F      N943   000020000000000000000  0800    V8N1H5
SRM0000000000671234567890Doyle                    Ruthe                                             Boyle                    Alene                                             19580615M      N943   000100000000000000000  0800    V8N1C4
SRM0000000000681234567890Rohan                    Gregorio                                          Becker                   Braulio                                           19681110M      N943   000GA0000000000000000  0800    V8N1J3
SRM0000000000691234567890Hagenes                  Forrest                                           Rogahn                   Bennett                                           19941001M      N943   000030000000000000000  0800    V8N0A4
SRM0000000000701234567890Emard                    Andre                                             Pacocha                  Katheryn                                          19871229M      N943   000GA0000000000000000  0800    V8N1K7
SRM0000000000711234567890Reichel                  Estella                                           O'Reilly                 Antonetta                                         19671210M      N943   000GA0000000000000000  0800    V8N1C9
SRM0000000000721234567890Leannon                  Tom                                               Hand                     Kailyn                                            19770515F      N943   000060000000000000000  0800    V8N1L2
SRM0000000000731234567890Nicolas                  Alexandria                                        Hodkiewicz               Shea                                              19910924M      N943   000030000000000000000  0800    V8N1K8
SRM0000000000741234567890Spinka                   Kurt                                              Sauer                    Greyson                                           19870828F      N943   000GA0000000000000000  0800    V8N1B7
SRM0000000000751234567890Mueller                  Sedrick                                           McCullough               Uriah                                             19820614F      N943   000040000000000000000  0800    V8N1B5
SRM0000000000761234567890Collins                  Aubrey                                            Rutherford               Elyssa                                            19590314F      N943   000070000000000000000  0800    V8N0A8
SRM0000000000771234567890Olson                    Stuart                                            Ward                     Pearline                                          19850605F      N943   000030000000000000000  0800    V8N1B3
SRM0000000000781234567890Farrell                  Alexandra                                         Boyer                    Andreanne                                         19770808F      N943   000090000000000000000  0800    V8N1C5
SRM0000000000791234567890Sporer                   Arthur                                            Emard                    Joanne                                            19631029M      N943   000080000000000000000  0800    V8N1G7
SRM0000000000801234567890McGlynn                  Antonetta                                         Hilll                    Elizabeth                                         20010425F      N943   000070000000000000000  0800    V8N1A2
SRM0000000000811234567890Nienow                   Pamela                                            Olson                    Ardella                                           19700329M      N943   000120000000000000000  0800    V8N1C9
SRM0000000000821234567890Considine                Samson                                            Kozey                    Merl                                              19870328F      N943   000SU0000000000000000  0800    V8N0B2
SRM0000000000831234567890Kuphal                   Reilly                                            Jacobs                   Lauriane                                          19741017M      N943   000110000000000000000  0800    V8N1C3
SRM0000000000841234567890Grant                    Grover                                            McDermott                Grayce                                            19990909F      N943   000010000000000000000  0800    V8N1G2
SRM0000000000851234567890Terry                    Bartholome                                        Christiansen             Alda                                              20000207F      N943   000GA0000000000000000  0800    V8N1K2
SRM0000000000861234567890Hilpert                  Abbie                                             Reynolds                 Jayme                                             19960308M      N943   000110000000000000000  0800    V8N1B3
SRM0000000000871234567890Parker                   Scotty                                            Dach                     Devyn                                             19580215M      N943   000010000000000000000  0800    V8N1K4
SRM0000000000881234567890Cronin                   Marley                                            Wisoky                   Oswaldo                                           19871026F      N943   000040000000000000000  0800    V8N1G4
SRM0000000000891234567890Wunsch                   Cielo                                             Daugherty                Camila                                            19680322M      N943   000120000000000000000  0800    V8N1H9
SRM0000000000901234567890McKenzie                 Miller                                            D'Amore                  Stephon                                           19560329M      N943   000060000000000000000  0800    V8N1J1
SRM0000000000911234567890Weimann                  Braden                                            Sipes                    Morris                                            19710504F      N943   000110000000000000000  0800    V8N1G8
SRM0000000000921234567890Ferry                    Karianne                                          Boyle                    Darryl                                            19851011M      N943   000100000000000000000  0800    V8N1B8
SRM0000000000931234567890Emard                    Ward                                              Shanahan                 Jordi                                             19800729F      N943   000GA0000000000000000  0800    V8N1K6
SRM0000000000941234567890Glover                   Herman                                            McGlynn                  Gia                                               19911104M      N943   000090000000000000000  0800    V8N1E8
SRM0000000000951234567890Lakin                    Orin                                              Howell                   Nettie                                            20000823M      N943   000060000000000000000  0800    V8N1L1
SRM0000000000961234567890Borer                    Lupe                                              Satterfield              Loy                                               19660402F      N943   000120000000000000000  0800    V8N1A8
SRM0000000000971234567890Mertz                    Ted                                               Jacobson                 Daren                                             19770408F      N943   000SU0000000000000000  0800    V8N1C4
SRM0000000000981234567890Erdman                   Abigayle                                          Harvey                   Baby                                              19740321F      N943   000050000000000000000  0800    V8N1E2
SRM0000000000991234567890Wiza                     Howard                                            Mills                    Telly                                             19611030M      N943   000030000000000000000  0800    V8N0A5
SRM0000000001001234567890Trantow                  Theodora                                          Heidenreich              Kaelyn                                            19870922M      N943   000GA0000000000000000  0800    V8N1E6
SRM0000000001011234567890Schmitt                  Jessika                                           Mann                     Easton                                            19661103M      N943   000110000000000000000  0800    V8N1C9
SRM0000000001021234567890Ebert                    Francesco                                         Hirthe                   Krista                                            19980425F      N943   000010000000000000000  0800    V8N1J2
SRM0000000001031234567890Balistreri               Lucius                                            Quigley                  Russel                                            19990411M      N943   000SU0000000000000000  0800    V8N1K5
SRM0000000001041234567890Abbott                   Melisa                                            Kuvalis                  Hayley                                            19620716M      N943   000040000000000000000  0800    V8N1B5
SRM0000000001051234567890Nikolaus                 Keegan                                            Gislason                 Marjory                                           19660715F      N943   000040000000000000000  0800    V8N0A2
SRM0000000001061234567890Ratke                    Korbin                                            Nader                    Lizeth                                            20020704F      N943   000GA0000000000000000  0800    V8N1J9
SRM0000000001071234567890Dibbert                  Garry                                             Gorczany                 Lia                                               19590125M      N943   000010000000000000000  0800    V8N0A9
SRM0000000001081234567890Rath                     Abbigail                                          Harris                   Electa                                            19630811M      N943   000090000000000000000  0800    V8N1A1
SRM0000000001091234567890Hackett                  Genoveva                                          Okuneva                  Caleigh                                           19790416M      N943   000070000000000000000  0800    V8N1A9
SRM0000000001101234567890Becker                   Dane                                              Rowe                     Conner                                            20000116M      N943   000050000000000000000  0800    V8N1C6
SRM0000000001111234567890Upton                    Marcelle                                          Lind                     Dahlia                                            19860630M      N943   000010000000000000000  0800    V8N0A3
SRM0000000001121234567890Stanton                  Elenor                                            Kris                     Marianna                                          19951209F      N943   000SU0000000000000000  0800    V8N1K5
SRM0000000001131234567890Reynolds                 Mateo                                             Emmerich                 Delores                                           19960329F      N943   000SU0000000000000000  0800    V8N1C8
SRM0000000001141234567890Schamberger              Winston                                           Buckridge                Jayme                                             19820119M      N943   000110000000000000000  0800    V8N1A5
SRM0000000001151234567890Pollich                  Enrique                                           Lebsack                  Golda                                             19930115F      N943   000020000000000000000  0800    V8N0A2
SRM0000000001161234567890Towne                    Rahsaan                                           Hane                     Mikel                                             19550325F      N943   000020000000000000000  0800    V8N1J6
SRM0000000001171234567890Daniel                   Trycia                                            O'Kon                    Stanford                                          19771022F      N943   000040000000000000000  0800    V8N1J9
SRM0000000001181234567890Volkman                  Kendall                                           Konopelski               Herta                                             20000609F      N943   000GA0000000000000000  0800    V8N1A8
SRM0000000001191234567890Bashirian                Anthony                                           McGlynn                  Schuyler                                          19880319M      N943   000050000000000000000  0800    V8N1J1
SRM0000000001201234567890Marks                    Alisa                                             Veum                     Ansley                                            19760616M      N943   000010000000000000000  0800    V8N1A5
SRM0000000001211234567890Schneider                Bret                                              Upton                    Hector                                            20020818M      N943   000080000000000000000  0800    V8N1C4
SRM0000000001221234567890Zulauf                   Sydnie                                            Kirlin                   Suzanne                                           19930723M      N943   000SU0000000000000000  0800    V8N1J2
SRM0000000001231234567890Koch                     Athena                                            Stiedemann               Edyth                                             19870514F      N943   000120000000000000000  0800    V8N1E5
SRM0000000001241234567890Smith                    Larry                                             O'Reilly                 Margarett                                         19850813M      N943   000080000000000000000  0800    V8N1J3
SRM0000000001251234567890Kunde                    Lydia                                             Bode                     Reese                                             19961226F      N943   000020000000000000000  0800    V8N1G5
SRM0000000001261234567890Auer                     Kolby                                             Christiansen             Oliver                                            19640427M      N943   000030000000000000000  0800    V8N1A4
SRM0000000001271234567890Bernier                  Brenda                                            Frami                    Christina                                         19690828F      N943   000080000000000000000  0800    V8N1B8
SRM0000000001281234567890Walsh                    Eulah                                             Douglas                  Nelda                                             19700326M      N943   000SU0000000000000000  0800    V8N1E9
SRM0000000001291234567890Sawayn                   Madaline                                          Kiehn                    Asha                                              19900504M      N943   000110000000000000000  0800    V8N1J6
SRM0000000001301234567890Olson                    Rhianna                                           Wyman                    Arvel                                             19580406M      N943   000090000000000000000  0800    V8N1L3
SRM0000000001311234567890Ruecker                  Erna                                              Price                    Edgardo                                           19730604F      N943   000080000000000000000  0800    V8N1B9
SRM0000000001321234567890Hackett                  Aliya                                             Skiles                   Emilia                                            19550829F      N943   000010000000000000000  0800    V8N1A3
SRM0000000001331234567890Mayert                   Afton                                             Purdy                    Angelo                                            19830623F      N943   000050000000000000000  0800    V8N1E2
SRM0000000001341234567890Hodkiewicz               Jacynthe                                          Beahan                   Favian                                            19771023M      N943   000100000000000000000  0800    V8N1H5
SRM0000000001351234567890Rippin                   Rhianna                                           Marks                    Delphia                                           20021126F      N943   000GA0000000000000000  0800    V8N1E6
SRM0000000001361234567890Ziemann                  Demarco                                           Shields                  Eliseo                                            19791205M      N943   000090000000000000000  0800    V8N0A2
SRM0000000001371234567890Hills                    Halle                                             Rolfson                  Westley                                           19710408F      N943   000080000000000000000  0800    V8N1C9
SRM0000000001381234567890Wiegand                  Candace                                           Rau                      Kailee                                            19860624M      N943   000010000000000000000  0800    V8N0A7
SRM0000000001391234567890Shields                  Brando                                            Aufderhar                Ceasar                                            19670204F      N943   000010000000000000000  0800    V8N1E6
SRM0000000001401234567890Price                    Armand                                            Dicki                    Dangelo                                           20020411M      N943   000050000000000000000  0800    V8N1J6
SRM0000000001411234567890Zieme                    Mireya                                            Wolff                    Zion                                              19620801M      N943   000030000000000000000  0800    V8N1J3
SRM0000000001421234567890Marks                    Armando                                           DuBuque                  Jamel                                             19770117M      N943   000060000000000000000  0800    V8N0A6
SRM0000000001431234567890Schamberger              Hester                                            Nikolaus                 Raul                                              19990213M      N943   000050000000000000000  0800    V8N0A2
SRM0000000001441234567890Botsford                 Ebony                                             Cormier                  Kristy                                            19810619F      N943   000050000000000000000  0800    V8N1J3
SRM0000000001451234567890Schneider                Lucio                                             Wolf                     Elenora                                           20020930F      N943   000010000000000000000  0800    V8N1B7
SRM0000000001461234567890Considine                Darren                                            Wunsch                   Raegan                                            19851109M      N943   000110000000000000000  0800    V8N1E6
SRM0000000001471234567890Upton                    Sabrina                                           Wuckert                  Sally                                             19590316M      N943   000020000000000000000  0800    V8N1L3
SRM0000000001481234567890Prosacco                 Werner                                            Wyman                    William                                           19670727F      N943   000090000000000000000  0800    V8N1B9
SRM0000000001491234567890Kilback                  Turner                                            Feeney                   Shane                                             19720202F      N943   000120000000000000000  0800    V8N1B4
SRM0000000001501234567890Mante                    Norwood                                           Tillman                  Alicia                                            19760702F      N943   000100000000000000000  0800    V8N1G6
SRM0000000001511234567890Howe                     Yesenia                                           Langosh                  Terrance                                          19840914M      N943   000080000000000000000  0800    V8N0A9
SRM0000000001521234567890Marks                    Laverna                                           Labadie                  Estell                                            19601217M      N943   000040000000000000000  0800    V8N1H7
SRM0000000001531234567890Prohaska                 Donna                                             Torphy                   Jessy                                             19720311F      N943   000070000000000000000  0800    V8N1E3
SRM0000000001541234567890Goodwin                  Susan                                             Strosin                  Ayla                                              19670411M      N943   000040000000000000000  0800    V8N1J1
SRM0000000001551234567890Collins                  Lilla                                             Schaden                  Treva                                             19861119F      N943   000120000000000000000  0800    V8N1A6
SRM0000000001561234567890Thiel                    Hellen                                            Jast                     Jess                                              19771114M      N943   000SU0000000000000000  0800    V8N1J6
SRM0000000001571234567890Mann                     Laisha                                            Sipes                    Florine                                           19920628M      N943   000120000000000000000  0800    V8N1J2
SRM0000000001581234567890Dibbert                  Josefina                                          Gislason                 Miguel                                            19611010M      N943   000SU0000000000000000  0800    V8N1J6
SRM0000000001591234567890Kuvalis                  Alford                                            Swift                    Malika                                            19870713M      N943   000090000000000000000  0800    V8N1J9
SRM0000000001601234567890Homenick                 Maia                                              Blick                    Kip                                               19831007F      N943   000030000000000000000  0800    V8N1C9
SRM0000000001611234567890Luettgen                 Paxton                                            Mueller                  Chandler                                          19860620M      N943   000100000000000000000  0800    V8N1B8
SRM0000000001621234567890Lakin                    Marcella                                          Morar                    Maynard                                           19940818F      N943   000100000000000000000  0800    V8N1K7
SRM0000000001631234567890Hammes                   Andreane                                          McClure                  Norris                                            19930112M      N943   000050000000000000000  0800    V8N1C8
SRM0000000001641234567890Oberbrunner              Norval                                            Bauch                    Corene                                            19960206F      N943   000050000000000000000  0800    V8N1B7
SRM0000000001651234567890Kutch                    Elmore                                            Ortiz                    Meredith                                          19850626F      N943   000SU0000000000000000  0800    V8N1C9
SRM0000000001661234567890Kuphal                   Leopoldo                                          Mayert                   Nils                                              19980203M      N943   000010000000000000000  0800    V8N1L1
SRM0000000001671234567890Hagenes                  Javier                                            Gleichner                Russ                                              19880223F      N943   000SU0000000000000000  0800    V8N1G1
SRM0000000001681234567890Blick                    Kassandra                                         Hane                     Nestor                                            20021118M      N943   000050000000000000000  0800    V8N1L3
SRM0000000001691234567890Schulist                 Jon                                               Wisoky                   Coleman                                           19600525F      N943   000120000000000000000  0800    V8N1H2
SRM0000000001701234567890Prosacco                 Julie                                             Jast                     Gabriel                                           19700720F      N943   000110000000000000000  0800    V8N1H4
SRM0000000001711234567890Jacobs                   Dallin                                            Hane                     Clara                                             19840517F      N943   000GA0000000000000000  0800    V8N0B3
SRM0000000001721234567890Champlin                 Arnulfo                                           Cummerata                Leif                                              19651107F      N943   000070000000000000000  0800    V8N1J7
SRM0000000001731234567890Collier                  Destini                                           Quigley                  Lelia                                             20010129F      N943   000060000000000000000  0800    V8N1A8
SRM0000000001741234567890Hansen                   Rosalee                                           Cummings                 Alycia                                            19770401F      N943   000070000000000000000  0800    V8N0A5
SRM0000000001751234567890Towne                    Kamron                                            Bogan                    Bertram                                           20020903F      N943   000070000000000000000  0800    V8N1J5
SRM0000000001761234567890Simonis                  Jennings                                          Pfeffer                  Rollin                                            19851210M      N943   000GA0000000000000000  0800    V8N1J2
SRM0000000001771234567890Predovic                 Josiane                                           Ondricka                 Madisen                                           19990107M      N943   000SU0000000000000000  0800    V8N1K8
SRM0000000001781234567890Hansen                   Kolby                                             Zemlak                   Sam                                               19930722M      N943   000010000000000000000  0800    V8N1A3
SRM0000000001791234567890Deckow                   Kevin                                             Orn                      Mary                                              20020203F      N943   000030000000000000000  0800    V8N1J9
SRM0000000001801234567890Gottlieb                 Evalyn                                            Romaguera                America                                           19750428F      N943   000SU0000000000000000  0800    V8N1C1
SRM0000000001811234567890Gerhold                  Carmel                                            Brakus                   Emmet                                             19600102M      N943   000060000000000000000  0800    V8N1K7
SRM0000000001821234567890Kessler                  Leta                                              McClure                  Erin                                              19820318F      N943   000010000000000000000  0800    V8N0B7
SRM0000000001831234567890Langworth                Anthony                                           Schowalter               Laurie                                            19980324M      N943   000100000000000000000  0800    V8N1H4
SRM0000000001841234567890O'Kon                    Suzanne                                           Gaylord                  Carlotta                                          20011222M      N943   000090000000000000000  0800    V8N1A7
SRM0000000001851234567890Gleason                  Juliana                                           Koch                     Donald                                            19601127F      N943   000080000000000000000  0800    V8N1C2
SRM0000000001861234567890Murazik                  Eldred                                            Goodwin                  Misty                                             19670103M      N943   000GA0000000000000000  0800    V8N0B5
SRM0000000001871234567890Effertz                  Royal                                             Stehr                    Jerrod                                            19720523M      N943   000060000000000000000  0800    V8N0A9
SRM0000000001881234567890Balistreri               Palma                                             Koss                     Emma                                              19890506M      N943   000050000000000000000  0800    V8N1A9
SRM0000000001891234567890Wisozk                   Helmer                                            Daniel                   Garrett                                           19971118M      N943   000020000000000000000  0800    V8N1G6
SRM0000000001901234567890Reichert                 Sandy                                             Abbott                   Cassie                                            19910410M      N943   000080000000000000000  0800    V8N0A9
SRM0000000001911234567890Berge                    Kenny                                             Kilback                  Kelton                                            19710519F      N943   000080000000000000000  0800    V8N1H5
SRM0000000001921234567890Fay                      Daija                                             Stanton                  Albina                                            19701011F      N943   000110000000000000000  0800    V8N1J6
SRM0000000001931234567890Durgan                   Crystal                                           Pouros                   Heidi                                             19861010F      N943   000040000000000000000  0800    V8N1C8
SRM0000000001941234567890Cronin                   Keara                                             Rohan                    Ezequiel                                          19740913M      N943   000090000000000000000  0800    V8N1K6
SRM0000000001951234567890Keebler                  Allen                                             Labadie                  Deron                                             19780608F      N943   000090000000000000000  0800    V8N1A7
SRM0000000001961234567890Oberbrunner              Kay                                               Kovacek                  Kelly                                             19850614F      N943   000GA0000000000000000  0800    V8N1K3
SRM0000000001971234567890Brown                    Reyes                                             Murphy                   Jeremy                                            19620717F      N943   000120000000000000000  0800    V8N1H3
SRM0000000001981234567890Hane                     Gilbert                                           Daniel                   Adella                                            19910413M      N943   000050000000000000000  0800    V8N1C2
SRM0000000001991234567890Kuhlman                  Jerrold                                           Goodwin                  Adalberto                                         19620612F      N943   000030000000000000000  0800    V8N1J6
SRM0000000002001234567890Ferry                    Gracie                                            Boehm                    Brittany                                          19990802M      N943   000050000000000000000  0800    V8N1C1
SRM0000000002011234567890Fay                      Dave                                              Tromp                    Raphaelle                                         19610130M      N943   000010000000000000000  0800    V8N1J4
SRM0000000002021234567890Conn                     Shaylee                                           Labadie                  Baron                                             19720127M      N943   000030000000000000000  0800    V8N1J1
SRM0000000002031234567890Graham                   Ardith                                            Robel                    Lindsay                                           19960728F      N943   000050000000000000000  0800    V8N1K4
SRM0000000002041234567890Fisher                   Letitia                                           Terry                    Blaze                                             19770206M      N943   000GA0000000000000000  0800    V8N0B5
SRM0000000002051234567890Waters                   Crystel                                           Daniel                   Charles                                           19620620F      N943   000GA0000000000000000  0800    V8N1K7
SRM0000000002061234567890Gleason                  Haylie                                            Schuster                 Wilfred                                           19701207M      N943   000030000000000000000  0800    V8N1G3
SRM0000000002071234567890Bayer                    Cornell                                           McClure                  Tobin                                             19931228F      N943   000040000000000000000  0800    V8N0B4
SRM0000000002081234567890MacGyver                 Titus                                             Morar                    Dock                                              19800511M      N943   000GA0000000000000000  0800    V8N1A1
SRM0000000002091234567890Ullrich                  Cassie                                            Ankunding                Weston                                            19711014F      N943   000020000000000000000  0800    V8N0A6
SRM0000000002101234567890Hudson                   Damian                                            Koch                     Trycia                                            19980223F      N943   000040000000000000000  0800    V8N1A4
SRM0000000002111234567890Rosenbaum                Christophe                                        Wiza                     Karli                                             19721215F      N943   000110000000000000000  0800    V8N0A5
SRM0000000002121234567890Shields                  Zoey                                              Schaefer                 Albina                                            19660419F      N943   000080000000000000000  0800    V8N1J3
SRM0000000002131234567890Heaney                   Libby                                             Lesch                    Florida                                           19970124M      N943   000SU0000000000000000  0800    V8N1K2
SRM0000000002141234567890Schuster                 Juliet                                            Jakubowski               Eden                                              19820818F      N943   000100000000000000000  0800    V8N0A7
SRM0000000002151234567890Mayert                   Clementine                                        Terry                    Elisha                                            19750410M      N943   000040000000000000000  0800    V8N1K1
SRM0000000002161234567890Russel                   Zelma                                             Swift                    Marina                                            19750811F      N943   000040000000000000000  0800    V8N1C9
SRM0000000002171234567890Wilderman                Tomas                                             Ziemann                  Derek                                             19750416F      N943   000120000000000000000  0800    V8N1H6
SRM0000000002181234567890Cronin                   Kim                                               Beatty                   Israel                                            19930501F      N943   000030000000000000000  0800    V8N1E5
SRM0000000002191234567890Abernathy                Nickolas                                          Cummings                 Armani                                            19770823F      N943   000100000000000000000  0800    V8N1J1
SRM0000000002201234567890Predovic                 Bonita                                            West                     Torrey                                            19960831F      N943   000010000000000000000  0800    V8N1B9
SRM0000000002211234567890Reichel                  Mason                                             Hudson                   Coby                                              19560328F      N943   000090000000000000000  0800    V8N1G1
SRM0000000002221234567890Rempel                   Fred                                              Doyle                    Tessie                                            19611124F      N943   000090000000000000000  0800    V8N0A2
SRM0000000002231234567890Goodwin                  Nicole                                            Harris                   Verda                                             19801123M      N943   000050000000000000000  0800    V8N1H5
SRM0000000002241234567890Glover                   Alvera                                            Casper                   Eliezer                                           19780306F      N943   000010000000000000000  0800    V8N0A2
SRM0000000002251234567890Lueilwitz                Dortha                                            Lueilwitz                Vidal                                             19671214M      N943   000070000000000000000  0800    V8N1K8
SRM0000000002261234567890Gibson                   Genevieve                                         Beier                    Annamae                                           20020313F      N943   000030000000000000000  0800    V8N0A9
SRM0000000002271234567890Schaden                  Jovani                                            Cruickshank              Davonte                                           19920131M      N943   000SU0000000000000000  0800    V8N1H8
SRM0000000002281234567890Paucek                   Michel                                            Torphy                   Rubye                                             19971023F      N943   000GA0000000000000000  0800    V8N1K3
SRM0000000002291234567890Rempel                   Karley                                            Hand                     Arne                                              19660601M      N943   000060000000000000000  0800    V8N1C6
SRM0000000002301234567890Veum                     Austen                                            Boyle                    Haskell                                           19720709F      N943   000090000000000000000  0800    V8N1J6
SRM0000000002311234567890Feest                    Anissa                                            Olson                    Krystel                                           19990726F      N943   000070000000000000000  0800    V8N1H2
SRM0000000002321234567890Beier                    Darrion                                           Rice                     Antonetta                                         19871105F      N943   000060000000000000000  0800    V8N1K7
SRM0000000002331234567890Langworth                Eunice                                            Gleichner                Torey                                             19680710F      N943   000080000000000000000  0800    V8N1H3
SRM0000000002341234567890Willms                   Marisol                                           Fisher                   Domenico                                          19860617M      N943   000030000000000000000  0800    V8N1A3
SRM0000000002351234567890Price                    Eliezer                                           Murray                   Wava                                              19770602M      N943   000040000000000000000  0800    V8N1A5
SRM0000000002361234567890Fadel                    Kallie                                            Howe                     Herminia                                          19590619F      N943   000030000000000000000  0800    V8N1C1
SRM0000000002371234567890Labadie                  Alek                                              Okuneva                  Millie                                            19671221M      N943   000040000000000000000  0800    V8N1H3
SRM0000000002381234567890Batz                     Stanford                                          Boehm                    June                                              19660721M      N943   000050000000000000000  0800    V8N1J2
SRM0000000002391234567890Rau                      Kay                                               Wiza                     Emmalee                                           19580520F      N943   000GA0000000000000000  0800    V8N1B9
SRM0000000002401234567890Beahan                   Waldo                                             Macejkovic               Janessa                                           19690330F      N943   000060000000000000000  0800    V8N0B3
SRM0000000002411234567890Spencer                  Henderson                                         Greenholt                Timothy                                           19691205M      N943   000110000000000000000  0800    V8N1C3
SRM0000000002421234567890Reynolds                 Carlee                                            Champlin                 Kristina                                          19810803F      N943   000110000000000000000  0800    V8N1J3
SRM0000000002431234567890Davis                    Vance                                             Stracke                  Noelia                                            20000518M      N943   000010000000000000000  0800    V8N1L1
SRM0000000002441234567890Hilll                    Ned                                               Corwin                   Santa                                             19780223F      N943   000SU0000000000000000  0800    V8N1J4
SRM0000000002451234567890Gislason                 Baylee                                            Toy                      Alysa                                             19830421M      N943   000020000000000000000  0800    V8N1J2
SRM0000000002461234567890Kuvalis                  Malinda                                           Hagenes                  Halle                                             19730626M      N943   000SU0000000000000000  0800    V8N1B5
SRM0000000002471234567890Flatley                  Kareem                                            Johnston                 Abdul                                             19910210F      N943   000SU0000000000000000  0800    V8N1E8
SRM0000000002481234567890Koelpin                  Mallory                                           Beier                    Maeve                                             19940910M      N943   000040000000000000000  0800    V8N1K5
SRM0000000002491234567890Rodriguez                Clifford                                          Legros                   Madelynn                                          19711109M      N943   000110000000000000000  0800    V8N1B5
SRM0000000002501234567890Lakin                    Karlie                                            Schmeler                 Garrick                                           19950609F      N943   000SU0000000000000000  0800    V8N0A5
SRM0000000002511234567890Yundt                    Lorenza                                           Conroy                   Francisco                                         19850327F      N943   000080000000000000000  0800    V8N1C1
SRM0000000002521234567890Yundt                    Estell                                            Langworth                Murray                                            19610701F      N943   000070000000000000000  0800    V8N0B4
SRM0000000002531234567890Bashirian                Jane                                              Cassin                   Alexie                                            20020528F      N943   000070000000000000000  0800    V8N1A8
SRM0000000002541234567890Kassulke                 Tania                                             Kihn                     Faustino                                          19970521M      N943   000020000000000000000  0800    V8N1A7
SRM0000000002551234567890Gibson                   Maxime                                            Effertz                  Taurean                                           19661229M      N943   000120000000000000000  0800    V8N1A3
SRM0000000002561234567890Carter                   Paris                                             Runolfsson               Emory                                             19881207M      N943   000010000000000000000  0800    V8N1E9
SRM0000000002571234567890Schuster                 Breana                                            Mante                    Rickey                                            19660721M      N943   000020000000000000000  0800    V8N1A7
SRM0000000002581234567890Hane                     Jazlyn                                            Hermann                  Kaleigh                                           19870324F      N943   000020000000000000000  0800    V8N1G6
SRM0000000002591234567890Nolan                    Maxine                                            Hansen                   Desiree                                           19670312F      N943   000100000000000000000  0800    V8N1J1
SRM0000000002601234567890Tremblay                 Charity                                           Baumbach                 Lola                                              19591209F      N943   000120000000000000000  0800    V8N1J8
SRM0000000002611234567890Murphy                   Ewell                                             Fadel                    Sigmund                                           19561129F      N943   000010000000000000000  0800    V8N1K7
SRM0000000002621234567890Lindgren                 Doug                                              Gottlieb                 Brenda                                            19810503M      N943   000100000000000000000  0800    V8N1H8
SRM0000000002631234567890Muller                   Forrest                                           Moore                    Eliseo                                            19811205F      N943   000110000000000000000  0800    V8N0A7
SRM0000000002641234567890Goodwin                  Shanie                                            Brekke                   Hobart                                            19760528M      N943   000GA0000000000000000  0800    V8N1H5
SRM0000000002651234567890Zboncak                  Anita                                             Barton                   Donald                                            19980828M      N943   000050000000000000000  0800    V8N1K5
SRM0000000002661234567890Barrows                  Rosamond                                          Batz                     Polly                                             19650613M      N943   000060000000000000000  0800    V8N1C6
SRM0000000002671234567890Kerluke                  Hillary                                           Considine                Baby                                              20000613M      N943   000030000000000000000  0800    V8N0A3
SRM0000000002681234567890Thiel                    Constance                                         Parisian                 Norma                                             19550826M      N943   000050000000000000000  0800    V8N1A4
SRM0000000002691234567890Flatley                  Ashlynn                                           Wuckert                  Susana                                            19840215M      N943   000GA0000000000000000  0800    V8N1A2
SRM0000000002701234567890Pfannerstill             Levi                                              Lakin                    Stacy                                             19771105F      N943   000020000000000000000  0800    V8N1A7
SRM0000000002711234567890Rath                     Leatha                                            Brekke                   Myrtle                                            19610617F      N943   000050000000000000000  0800    V8N1C2
SRM0000000002721234567890Zemlak                   Marc                                              Schaden                  Yvette                                            19760507F      N943   000080000000000000000  0800    V8N0A9
SRM0000000002731234567890Conn                     Clay                                              Hauck                    Dina                                              19630313M      N943   000080000000000000000  0800    V8N1H7
SRM0000000002741234567890Padberg                  Jeramy                                            Koepp                    Raymundo                                          19721207F      N943   000030000000000000000  0800    V8N1K5
SRM0000000002751234567890Hahn                     Virgil                                            Bode                     Rudy                                              19671004F      N943   000110000000000000000  0800    V8N0A2
SRM0000000002761234567890Howell                   Emmett                                            Homenick                 Catherine                                         19850323F      N943   000060000000000000000  0800    V8N1C3
SRM0000000002771234567890Yundt                    Koby                                              Towne                    Rosalind                                          19750625M      N943   000110000000000000000  0800    V8N1J1
SRM0000000002781234567890Koepp                    Michel                                            Fahey                    Tiffany                                           19921210F      N943   000020000000000000000  0800    V8N1A5
SRM0000000002791234567890Jones                    Doris                                             Langosh                  Gisselle                                          19900805F      N943   000070000000000000000  0800    V8N1A4
SRM0000000002801234567890O'Connell                Eden                                              Yundt                    Loraine                                           19961228F      N943   000080000000000000000  0800    V8N1H7
SRM0000000002811234567890McKenzie                 Vanessa                                           Ernser                   Jayda                                             20011017F      N943   000020000000000000000  0800    V8N1B3
SRM0000000002821234567890Becker                   Ivah                                              Simonis                  Courtney                                          19711101F      N943   000050000000000000000  0800    V8N0B4
SRM0000000002831234567890Schumm                   Icie                                              King                     Dejon                                             19741014F      N943   000100000000000000000  0800    V8N1G1
SRM0000000002841234567890Botsford                 Tevin                                             Boehm                    Murl                                              19990530M      N943   000030000000000000000  0800    V8N0B6
SRM0000000002851234567890Cremin                   Deshawn                                           Labadie                  Myrtie                                            19600909F      N943   000SU0000000000000000  0800    V8N1H3
SRM0000000002861234567890Kuphal                   Tyrese                                            Strosin                  Andreanne                                         19651015F      N943   000100000000000000000  0800    V8N1H7
SRM0000000002871234567890Bauch                    Paolo                                             Runolfsson               Keegan                                            19850611M      N943   000090000000000000000  0800    V8N1A5
SRM0000000002881234567890Lindgren                 Carolanne                                         Nader                    Aisha                                             19850507M      N943   000080000000000000000  0800    V8N1E4
SRM0000000002891234567890Gerlach                  Freddie                                           Little                   Name                                              19860706F      N943   000GA0000000000000000  0800    V8N1A9
SRM0000000002901234567890Labadie                  Muhammad                                          Lang                     Kirsten                                           19820206F      N943   000050000000000000000  0800    V8N1A6
SRM0000000002911234567890Heathcote                Walter                                            Zboncak                  Nathaniel                                         19951010F      N943   000100000000000000000  0800    V8N1A4
SRM0000000002921234567890Predovic                 Josiane                                           Hamill                   Dwight                                            19970729M      N943   000100000000000000000  0800    V8N1B9
SRM0000000002931234567890Shields                  Odessa                                            Nikolaus                 Constantin                                        19571212M      N943   000070000000000000000  0800    V8N1E4
SRM0000000002941234567890Lakin                    Itzel                                             Lang                     Dortha                                            19700502F      N943   000070000000000000000  0800    V8N1H9
SRM0000000002951234567890Ferry                    Graciela                                          Bailey                   Darion                                            19970219F      N943   000100000000000000000  0800    V8N1G6
SRM0000000002961234567890Johnston                 Jeremy                                            Bailey                   Toni                                              19700311M      N943   000010000000000000000  0800    V8N1E4
SRM0000000002971234567890Rutherford               Cornell                                           Moen                     Kellen                                            19810811F      N943   000080000000000000000  0800    V8N1K2
SRM0000000002981234567890Satterfield              Veronica                                          Runolfsson               Jerald                                            19941224F      N943   000020000000000000000  0800    V8N1H4
SRM0000000002991234567890Weissnat                 Garnet                                            Pfeffer                  Karine                                            19830620M      N943   000120000000000000000  0800    V8N1G9
SRM0000000003001234567890Friesen                  Hans                                              White                    Jamal                                             19900105F      N943   000060000000000000000  0800    V8N0B6
SRM0000000003011234567890Kovacek                  Meghan                                            Gibson                   Wilfred                                           19760218F      N943   000120000000000000000  0800    V8N1K7
SRM0000000003021234567890Yost                     Izaiah                                            Gibson                   Dolly                                             19730711M      N943   000060000000000000000  0800    V8N1G8
SRM0000000003031234567890Bartell                  Kris                                              Howell                   Carmella                                          20010204M      N943   000010000000000000000  0800    V8N1J2
SRM0000000003041234567890Bosco                    Lelia                                             O'Conner                 Amparo                                            19980104F      N943   000020000000000000000  0800    V8N1C9
SRM0000000003051234567890Hills                    Dorothea                                          Littel                   Novella                                           19640520F      N943   000010000000000000000  0800    V8N1K1
SRM0000000003061234567890Thiel                    Reid                                              Effertz                  Doris                                             19960211F      N943   000070000000000000000  0800    V8N1K7
SRM0000000003071234567890O'Reilly                 Breanna                                           Kris                     Sage                                              19720427M      N943   000GA0000000000000000  0800    V8N1G1
SRM0000000003081234567890Bahringer                Luisa                                             Conn                     Aliya                                             19830428F      N943   000120000000000000000  0800    V8N1K7
SRM0000000003091234567890Blanda                   Kyleigh                                           Altenwerth               Donavon                                           20010821M      N943   000120000000000000000  0800    V8N1E9
SRM0000000003101234567890Mertz                    Garett                                            Bartell                  Donald                                            19680414M      N943   000GA0000000000000000  0800    V8N0A7
SRM0000000003111234567890O'Kon                    Laney                                             Heller                   Kendall                                           19770119M      N943   000060000000000000000  0800    V8N0A9
SRM0000000003121234567890Pagac                    Daphnee                                           Farrell                  Geoffrey                                          19910601M      N943   000080000000000000000  0800    V8N0A2
SRM0000000003131234567890Welch                    Vaughn                                            Torphy                   Angelo                                            19851110F      N943   000SU0000000000000000  0800    V8N0A5
SRM0000000003141234567890Aufderhar                Candida                                           Daugherty                Yvette                                            19990310F      N943   000GA0000000000000000  0800    V8N1K4
SRM0000000003151234567890Goodwin                  Dameon                                            Lubowitz                 Arlene                                            19911006M      N943   000050000000000000000  0800    V8N1E1
SRM0000000003161234567890Bahringer                Sincere                                           Stokes                   Ezra                                              19781105F      N943   000070000000000000000  0800    V8N1K8
SRM0000000003171234567890Collier                  Kay                                               Osinski                  Mara                                              19580425F      N943   000010000000000000000  0800    V8N0A4
SRM0000000003181234567890Connelly                 Bridget                                           Hilpert                  Daron                                             19830812M      N943   000080000000000000000  0800    V8N0B6
SRM0000000003191234567890Lehner                   Leon                                              Toy                      Alysha                                            19980905M      N943   000120000000000000000  0800    V8N1C3
SRM0000000003201234567890Prosacco                 Ruben                                             Braun                    Brandt                                            19820901M      N943   000090000000000000000  0800    V8N0B6
SRM0000000003211234567890Dach                     Blake                                             Howe                     Kiel                                              19590821F      N943   000030000000000000000  0800    V8N1C9
SRM0000000003221234567890Rosenbaum                Ernie                                             Abbott                   Willard                                           19700321F      N943   000040000000000000000  0800    V8N1J4
SRM0000000003231234567890Wiegand                  Hiram                                             Fisher                   Sven                                              19991219F      N943   000010000000000000000  0800    V8N0A4
SRM0000000003241234567890Ward                     Edythe                                            Ryan                     Jackson                                           19890217M      N943   000100000000000000000  0800    V8N1G9
SRM0000000003251234567890Bruen                    Genoveva                                          Auer                     Darian                                            19561125F      N943   000020000000000000000  0800    V8N1E2
SRM0000000003261234567890Watsica                  Daniella                                          Walsh                    Melvina                                           19830110M      N943   000060000000000000000  0800    V8N0B3
SRM0000000003271234567890Cole                     Alfred                                            Pfannerstill             Selmer                                            19960207F      N943   000GA0000000000000000  0800    V8N1G1
SRM0000000003281234567890Kuphal                   Isabelle                                          Bechtelar                Maryjane                                          20020525M      N943   000100000000000000000  0800    V8N1B9
SRM0000000003291234567890King                     Isabel                                            Casper                   Izaiah                                            19651004M      N943   000060000000000000000  0800    V8N1J1
SRM0000000003301234567890Bauch                    Esperanza                                         Crist                    Fleta                                             19881103M      N943   000SU0000000000000000  0800    V8N1J4
SRM0000000003311234567890Gerlach                  Margret                                           Thiel                    Eli                                               19801125F      N943   000090000000000000000  0800    V8N0A3
SRM0000000003321234567890Dickinson                Derek                                             Greenfelder              Rusty                                             19560329F      N943   000110000000000000000  0800    V8N1K3
SRM0000000003331234567890Schuster                 Simone                                            Runolfsson               Elwyn                                             19901012F      N943   000090000000000000000  0800    V8N0B5
SRM0000000003341234567890Fay                      Donald                                            Kunde                    Mary                                              19820509M      N943   000020000000000000000  0800    V8N0B1
SRM0000000003351234567890White                    Ryley                                             Nader                    Adolf                                             19971124M      N943   000120000000000000000  0800    V8N1J2
SRM0000000003361234567890Quigley                  Dianna                                            Schimmel                 Jevon                                             19781008F      N943   000110000000000000000  0800    V8N1L3
SRM0000000003371234567890Pagac                    Alison                                            Orn                      Ari                                               19900806M      N943   000010000000000000000  0800    V8N1H2
SRM0000000003381234567890Mills                    Teresa                                            Mitchell                 Mellie                                            19760301F      N943   000010000000000000000  0800    V8N0A8
SRM0000000003391234567890Nader                    Litzy                                             Boehm                    Gideon                                            19900531F      N943   000SU0000000000000000  0800    V8N0A6
SRM0000000003401234567890McDermott                Turner                                            Lakin                    Leann                                             19760424F      N943   000050000000000000000  0800    V8N1G6
SRM0000000003411234567890Smith                    Sunny                                             Runolfsson               Dorothea                                          19850808M      N943   000SU0000000000000000  0800    V8N1C1
SRM0000000003421234567890Stokes                   Mozell                                            Kessler                  Jordyn                                            19580312M      N943   000100000000000000000  0800    V8N1E6
SRM0000000003431234567890Cruickshank              Cordell                                           Ullrich                  Jamie                                             19920629F      N943   000120000000000000000  0800    V8N1L3
SRM0000000003441234567890Rice                     Santiago                                          Farrell                  Letha                                             19690901M      N943   000030000000000000000  0800    V8N1C9
SRM0000000003451234567890Hansen                   Barton                                            Heidenreich              Daija                                             19620706F      N943   000SU0000000000000000  0800    V8N1B8
SRM0000000003461234567890Farrell                  Annalise                                          Rogahn                   Braulio                                           20000524M      N943   000050000000000000000  0800    V8N1H4
SRM0000000003471234567890Johnson                  Retha                                             Oberbrunner              Ludwig                                            19550122M      N943   000SU0000000000000000  0800    V8N1J6
SRM0000000003481234567890Casper                   Ryan                                              Casper                   Clotilde                                          19840908F      N943   000090000000000000000  0800    V8N1E1
SRM0000000003491234567890Bartoletti               Kamryn                                            Sanford                  Maeve                                             19730118F      N943   000010000000000000000  0800    V8N1K4
SRM0000000003501234567890Dickens                  Olaf                                              Hessel                   Nicholaus                                         19921212M      N943   000040000000000000000  0800    V8N1G2
SRM0000000003511234567890Morissette               Alvis                                             Stark                    Chauncey                                          19930911M      N943   000120000000000000000  0800    V8N0A4
SRM0000000003521234567890Trantow                  Alek                                              Flatley                  Esther                                            20001103F      N943   000110000000000000000  0800    V8N1E3
SRM0000000003531234567890Rau                      Kiera                                             Grimes                   Pansy                                             19791122F      N943   000080000000000000000  0800    V8N1J7
SRM0000000003541234567890Greenholt                Morris                                            Denesik                  Dora                                              20010422M      N943   000030000000000000000  0800    V8N1J1
SRM0000000003551234567890Balistreri               Gianni                                            Wiegand                  Hallie                                            19700604F      N943   000080000000000000000  0800    V8N0B6
SRM0000000003561234567890Kuhlman                  Winona                                            Trantow                  Angel                                             19610625M      N943   000010000000000000000  0800    V8N0A3
SRM0000000003571234567890Gulgowski                Eleonore                                          Medhurst                 Tamia                                             19580203F      N943   000070000000000000000  0800    V8N1B5
SRM0000000003581234567890Littel                   Eugene                                            Stracke                  Toy                                               19960324F      N943   000080000000000000000  0800    V8N1B7
SRM0000000003591234567890Corwin                   Hudson                                            Jones                    Susanna                                           19940404M      N943   000040000000000000000  0800    V8N1J6
SRM0000000003601234567890Langosh                  Wilson                                            Ryan                     Zackery                                           19570225M      N943   000020000000000000000  0800    V8N1A3
SRM0000000003611234567890Torphy                   Demetris                                          Kirlin                   Gudrun                                            19600131F      N943   000120000000000000000  0800    V8N1G7
SRM0000000003621234567890Predovic                 Darby                                             Shanahan                 Emilie                                            19630110M      N943   000050000000000000000  0800    V8N1G2
SRM0000000003631234567890Hickle                   Darrion                                           Schmeler                 Stephen                                           19820510M      N943   000100000000000000000  0800    V8N1H2
SRM0000000003641234567890Wolff                    Allison                                           Gaylord                  Miller                                            20010529F      N943   000030000000000000000  0800    V8N1J8
SRM0000000003651234567890Towne                    Laura                                             Terry                    Liana                                             19670404F      N943   000070000000000000000  0800    V8N0A1
SRM0000000003661234567890Hartmann                 Bart                                              Kuhn                     Audie                                             19930809M      N943   000070000000000000000  0800    V8N1K4
SRM0000000003671234567890Howe                     Bert                                              Dicki                    Mattie                                            19861207F      N943   000SU0000000000000000  0800    V8N1A9
SRM0000000003681234567890Waelchi                  Zackary                                           Hettinger                Zora                                              19601218F      N943   000010000000000000000  0800    V8N1E2
SRM0000000003691234567890Kuhn                     Giuseppe                                          Rau                      Verlie                                            19950110F      N943   000020000000000000000  0800    V8N0B2
SRM0000000003701234567890Tillman                  Liliane                                           Carroll                  Annamae                                           19811201M      N943   000090000000000000000  0800    V8N1K9
SRM0000000003711234567890Gislason                 Nasir                                             Wolf                     Daphney                                           19560118M      N943   000080000000000000000  0800    V8N0A2
SRM0000000003721234567890Stokes                   Alexis                                            Brakus                   Margarett                                         19680930F      N943   000020000000000000000  0800    V8N0A1
SRM0000000003731234567890Reynolds                 Shawna                                            Towne                    Adonis                                            19881030F      N943   000060000000000000000  0800    V8N0B4
SRM0000000003741234567890Kling                    Sigmund                                           Robel                    Jaylen                                            20010503F      N943   000040000000000000000  0800    V8N1A2
SRM0000000003751234567890Buckridge                Jace                                              Emmerich                 Alberta                                           19730818M      N943   000040000000000000000  0800    V8N1C9
SRM0000000003761234567890Kohler                   Crystal                                           Ryan                     Luis                                              19610910M      N943   000060000000000000000  0800    V8N1J5
SRM0000000003771234567890Breitenberg              Kamille                                           Bins                     Selina                                            19640217F      N943   000110000000000000000  0800    V8N1A9
SRM0000000003781234567890Hagenes                  Kari                                              Abbott                   Laron                                             19721008F      N943   000100000000000000000  0800    V8N1G9
SRM0000000003791234567890Stracke                  Savion                                            Terry                    Dalton                                            19640522F      N943   000020000000000000000  0800    V8N1K3
SRM0000000003801234567890Mayer                    Genoveva                                          Gaylord                  Sebastian                                         19610628F      N943   000SU0000000000000000  0800    V8N1J2
SRM0000000003811234567890Cummerata                Alice                                             Gutmann                  Nathan                                            19660203F      N943   000050000000000000000  0800    V8N1A4
SRM0000000003821234567890Spencer                  Theresia                                          Mayer                    Jewell                                            19741109M      N943   000110000000000000000  0800    V8N1J7
SRM0000000003831234567890Daniel                   Gerhard                                           Hirthe                   Tessie                                            19670120M      N943   000010000000000000000  0800    V8N1A1
SRM0000000003841234567890Gleason                  Marcus                                            Klein                    Priscilla                                         20011205M      N943   000010000000000000000  0800    V8N1G9
SRM0000000003851234567890Dibbert                  Bo                                                Haag                     Sabina                                            19901117M      N943   000080000000000000000  0800    V8N0A8
SRM0000000003861234567890Steuber                  Mason                                             Moore                    Grayce                                            19901013F      N943   000070000000000000000  0800    V8N1H9
SRM0000000003871234567890Collier                  Cecilia                                           Brekke                   Brooks                                            19751026F      N943   000050000000000000000  0800    V8N1H2
SRM0000000003881234567890Fahey                    Nathen                                            Larson                   Aisha                                             19850406M      N943   000090000000000000000  0800    V8N1E5
SRM0000000003891234567890Kshlerin                 Joe                                               Ullrich                  Megane                                            19820203F      N943   000020000000000000000  0800    V8N1G2
SRM0000000003901234567890Bauch                    Lindsay                                           Batz                     Rickey                                            19560403M      N943   000010000000000000000  0800    V8N1G2
SRM0000000003911234567890King                     Alexys                                            Hyatt                    Jovani                                            19580721M      N943   000010000000000000000  0800    V8N0A7
SRM0000000003921234567890Paucek                   Gladyce                                           Nitzsche                 Abbey                                             19751011M      N943   000010000000000000000  0800    V8N1B4
SRM0000000003931234567890Champlin                 Clarabelle                                        Torphy                   Roslyn                                            19920809M      N943   000060000000000000000  0800    V8N1C2
SRM0000000003941234567890Schultz                  Ransom                                            Schowalter               Marlen                                            19650113F      N943   000020000000000000000  0800    V8N1B5
SRM0000000003951234567890Dickinson                Elisabeth                                         Cummerata                Leann                                             19700118F      N943   000120000000000000000  0800    V8N1G9
SRM0000000003961234567890Kessler                  Maxine                                            Howe                     Madisen                                           19840529F      N943   000070000000000000000  0800    V8N1J1
SRM0000000003971234567890Kunde                    Bill                                              Schmitt                  Jailyn                                            19671221M      N943   000030000000000000000  0800    V8N1E3
SRM0000000003981234567890Streich                  Douglas                                           Lakin                    Anais                                             19730124F      N943   000040000000000000000  0800    V8N1K4
SRM0000000003991234567890Hegmann                  Vidal                                             Schaefer                 Lucienne                                          19620805M      N943   000020000000000000000  0800    V8N1L2
SRM0000000004001234567890Kemmer                   Zella                                             Abshire                  Josiane                                           19680205F      N943   000010000000000000000  0800    V8N0B4
SRM0000000004011234567890Kub                      Neil                                              Rolfson                  Sterling                                          19621103M      N943   000020000000000000000  0800    V8N1B8
SRM0000000004021234567890Flatley                  Marques                                           Schinner                 Misty                                             19871114F      N943   000100000000000000000  0800    V8N0A8
SRM0000000004031234567890Labadie                  Katrine                                           Kuhn                     Elza                                              20001209F      N943   000090000000000000000  0800    V8N0A6
SRM0000000004041234567890Dietrich                 Mack                                              Kutch                    Alena                                             19880520M      N943   000070000000000000000  0800    V8N1H1
SRM0000000004051234567890Dooley                   Candelario                                        Pfeffer                  Faye                                              20011106F      N943   000120000000000000000  0800    V8N1B9
SRM0000000004061234567890Wiegand                  Keaton                                            VonRueden                Gaetano                                           19790809F      N943   000120000000000000000  0800    V8N1A7
SRM0000000004071234567890Schultz                  Velva                                             Frami                    Michel                                            19620514F      N943   000040000000000000000  0800    V8N1H9
SRM0000000004081234567890Smith                    Elisabeth                                         Shanahan                 Beulah                                            20010109F      N943   000030000000000000000  0800    V8N1C9
SRM0000000004091234567890Ankunding                Cortney                                           Johnston                 Germaine                                          19620104M      N943   000070000000000000000  0800    V8N1B7
SRM0000000004101234567890Bayer                    Agustin                                           Osinski                  Nicklaus                                          19861124F      N943   000080000000000000000  0800    V8N1A1
SRM0000000004111234567890Conroy                   Joaquin                                           Sipes                    Lorna                                             19611107F      N943   000050000000000000000  0800    V8N1G4
SRM0000000004121234567890Prosacco                 Vernon                                            Hansen                   Rusty                                             19830702F      N943   000030000000000000000  0800    V8N1C8
SRM0000000004131234567890Schmidt                  Golda                                             Smitham                  Rowland                                           19551227F      N943   000120000000000000000  0800    V8N1B7
SRM0000000004141234567890Luettgen                 Eloise                                            Breitenberg              Nyasia                                            19581111F      N943   000100000000000000000  0800    V8N0B7
SRM0000000004151234567890Klocko                   Brandy                                            McKenzie                 Elizabeth                                         19550517F      N943   000SU0000000000000000  0800    V8N1G7
SRM0000000004161234567890Ortiz                    Reagan                                            Lehner                   Howell                                            19610823M      N943   000100000000000000000  0800    V8N1G4
SRM0000000004171234567890Hickle                   Winfield                                          Kuvalis                  Reva                                              19620728F      N943   000030000000000000000  0800    V8N1E9
SRM0000000004181234567890Prosacco                 Vita                                              Stanton                  Martin                                            19990119F      N943   000110000000000000000  0800    V8N0A8
SRM0000000004191234567890Dibbert                  Albina                                            Simonis                  Berenice                                          19680629F      N943   000060000000000000000  0800    V8N1H9
SRM0000000004201234567890Daniel                   Peggie                                            Jacobson                 Nella                                             19921204M      N943   000SU0000000000000000  0800    V8N1A8
SRM0000000004211234567890Graham                   Mayra                                             Altenwerth               Omari                                             19770825F      N943   000030000000000000000  0800    V8N1L1
SRM0000000004221234567890Orn                      Bill                                              Watsica                  Omer                                              20011108M      N943   000030000000000000000  0800    V8N1A8
SRM0000000004231234567890Schaefer                 Jacques                                           Krajcik                  Mozelle                                           19741202F      N943   000040000000000000000  0800    V8N1H6
SRM0000000004241234567890Okuneva                  Franz                                             Anderson                 Jana                                              19970128F      N943   000030000000000000000  0800    V8N1J3
SRM0000000004251234567890Harris                   Miller                                            Morar                    Kenyatta                                          20020703F      N943   000020000000000000000  0800    V8N1K2
